:020000040800F2
:10000000C00600206101000881150008691200087F
:1000100000000000000000000000000000000000E0
:10002000000000000000000000000000851500082E
:10003000000000000000000083150008871500087C
:1000400073010008730100087301000873010008C0
:1000500073010008730100087301000873010008B0
:1000600073010008730100087301000873010008A0
:100070007301000873010008730100087301000890
:1000800073010008730100080000000073010008FC
:100090007301000873010008730100087301000870
:1000A0007301000873010008730100087301000860
:1000B00073010008000000007301000800F002F85E
:1000C00000F03EF80CA030C8083824182D18A246BD
:1000D000671EAB4654465D46AC4201D100F030F895
:1000E0007E460F3E0FCCB6460126334200D0FB1AA7
:1000F000A246AB46334318471816000038160000D6
:10010000103A02D378C878C1FAD8520701D330C860
:1001100030C101D504680C60704700000023002442
:1001200000250026103A01D378C1FBD8520700D32E
:1001300030C100D50B6070471FB51FBD10B510BD95
:1001400000F07BF91146FFF7F7FF01F097FA00F096
:1001500093F903B4FFF7F2FF03BC00F099F9000034
:100160000748804707480047FEE7FEE7FEE7FEE74F
:10017000FEE7FEE704480549054A064B70470000C4
:1001800005160008BD000008C0000020C0060020C1
:10019000C0020020C0020020FEB5054610460C46F5
:1001A000184373D0AE468C460020AD1A01469C41E0
:1001B00067D36646002701243D46B61A9D4102D307
:1001C00013463A462124654676462F04360C3E43B4
:1001D0002D0CB61A9D4104D3150C1B042B4312049D
:1001E0001034654676462F06360A3E432D0AB61A67
:1001F0009D4104D3150E1B022B43120208346546A1
:1002000076462F0736093E432D09B61A9D4104D381
:10021000150F1B012B431201241D65467646AF07BF
:10022000B6083E43AD08B61A9D4104D3950F9B0016
:100230002B439200A41C65467646EF0776083E43A2
:100240006D08B61A9D411AD392185B41641C16E0E2
:100250000018764665464941B71A9D4101910090C4
:1002600009D36046B11A98418E4684460098019998
:100270000025401C6941DD0752082A435B08641EC3
:10028000E6D57246634603B0F0BDFFE700200146A5
:10029000C046C0462A462346F5E701E004C0091FD0
:1002A0000429FBD28B0701D50280801CC90700D02E
:1002B0000270704700290BD0C30702D00270401CA7
:1002C000491E022904D3830702D50280801C891E9F
:1002D000E3E70022EEE70022DFE7002203098B427A
:1002E0002CD3030A8B4211D300239C464EE00346D5
:1002F0000B433CD4002243088B4231D303098B4289
:100300001CD3030A8B4201D394463FE0C3098B42BE
:1003100001D3CB01C01A524183098B4201D38B0117
:10032000C01A524143098B4201D34B01C01A5241BA
:1003300003098B4201D30B01C01A5241C3088B42FF
:1003400001D3CB00C01A524183088B4201D38B00EA
:10035000C01A524143088B4201D34B00C01A52418C
:10036000411A00D201465241104670475DE0CA0F63
:1003700000D04942031000D34042534000229C4623
:1003800003098B422DD3030A8B4212D3FC2289012D
:1003900012BA030A8B420CD3890192118B4208D303
:1003A000890192118B4204D389013AD0921100E065
:1003B0008909C3098B4201D3CB01C01A5241830979
:1003C0008B4201D38B01C01A524143098B4201D3A6
:1003D0004B01C01A524103098B4201D30B01C01AD1
:1003E0005241C3088B4201D3CB00C01A524183084B
:1003F0008B4201D38B00C01A5241D9D243088B42A1
:1004000001D34B00C01A5241411A00D20146634643
:1004100052415B10104601D34042002B00D54942A7
:10042000704763465B1000D3404201B50020C046D0
:10043000C04602BD704770477047754600F024F80B
:10044000AE46050069465346C008C000854618B050
:1004500020B5FFF78FFE60BC00274908B64600268E
:10046000C0C5C0C5C0C5C0C5C0C5C0C5C0C5C0C564
:10047000403D49008D46704710B50446C046C04611
:100480002046FFF766FE10BD004870476000002060
:1004900001491820ABBEFEE72600020070470000AD
:1004A00070B5044600F0F4F80546601C02D004481C
:1004B0000078241800F0ECF8401BA042FAD370BD7D
:1004C00004000020F8B5002303240125BAE02E46DD
:1004D0009E40B44632407CD00E79B607B60F012E4E
:1004E00001D0022E17D186682746B6465E00B74077
:1004F00000967646BE43B646CF68009EB740764625
:100500003743876046686746BE430F79FF06FF0F93
:100510009F40374347600E79F643B6070ED0C66852
:100520002746B4465E00B646B7406646BE43B4466C
:100530008F687646B74066463743C7600E79B60780
:10054000B60F022E14D1DE08B60036180096366AB1
:100550005F07B446FE0E0F27B646B7406646BE4359
:10056000B4460F697646B74066463743009E376209
:1005700006682746B4465E00B646B7406646BE43A8
:100580000F79B446BF07BF0F7646B740664637437C
:1005900007604E68B603B60F53D02D4FBE692E4389
:1005A000BE61BE699F08F607F60F2A4EBF00BE194E
:1005B0000096B6680F27B4469E07360FB646B7407A
:1005C0006646BE430927FF06B446B84202D100275B
:1005D00010E036E0204FB84201D101270AE01F4F5A
:1005E000B84201D1022705E01D4FB84201D10327CF
:1005F00000E005277646B74066463743009EB76061
:10060000184E36684F689643FF0300D51643154FC2
:100610003E607E684F689643BF0300D51643114F76
:100620007E60BE684F689643FF0200D516430D4FAB
:10063000BE60FE684F689643BF0200D51643094A64
:10064000D6605B1C0A681646DE4000D03FE7F8BD66
:10065000001002400000014000040048000800486B
:10066000000C0048000401400069084000D001204F
:100670007047426913460B401B0491430B4383614F
:100680007047002A01D08161704781627047000085
:1006900001488068704700000400002070B50246E1
:1006A00040325378202B1CD11378012B19D0012311
:1006B000137024245470046825689D4325600468E1
:1006C00025681E03B5432560046825680D43256031
:1006D00000680168194301602020507000201070EC
:1006E00070BD022070BD70B5024640325378202B99
:1006F0001BD11378012B18D00124147024235370BC
:1007000003681D68A5431D6005682B680F26360227
:10071000B34309021943296000680168214301605D
:10072000202050700020107070BD022070BD0000AD
:1007300070B5040006D025464035687800260028AC
:1007400002D005E0012070BD2E70204600F062F955
:1007500024206870206801684908490001600F2161
:100760006068090688432168086121688A68012059
:10077000C00382438A60E1680129A16808D0212270
:100780009202114322689160E168022902D005E0DB
:100790000143F7E701212268C902516021684A68D4
:1007A0000F4B1A434A602168CA688243CA60616974
:1007B00020690843A169090208432168C860216AC9
:1007C000E06908432168086020680168012211433C
:1007D00001606664202068702663AE70002070BDE2
:1007E00000800002FFB50446002083B02546403556
:1007F00001906A78202A74D122689269D243120447
:100800007BD52A78012A78D001222A7024226A70A6
:1008100060648F05BF0DE06801280BD00520C00281
:10082000012138188902884321684860FFF730FFAA
:1008300006460CE03248F3E70698401C07D0FFF765
:1008400027FF811B0698814219D8002817D02168FC
:10085000886989698006C00FC906C90F0843EBD0B3
:1008600020688069069BC043C006009617D5002209
:100870002021204600F062FD002830D107E0202032
:100880006870616C014361640020287027E0216872
:100890002020C86168700020287007B0F0BD0022D9
:1008A0002021204600F04AFD002818D121681020A0
:1008B000C86121682020C86101990598814214D13E
:1008C0002068416801229203114341600096002292
:1008D00020212046069B00F031FD002802D0012097
:1008E000DBE70AE021682020C8610198401C01462E
:1008F0000190059881428ED3C1E70220CDE7000028
:1009000000200002FFB5054604464035687881B0F6
:10091000202878D12878012875D001202870FFF789
:10092000B7FE0746012200901923D103204600F0AC
:1009300005FD00283CD1212068701020A8700026F9
:10094000666403986062049860856663618D2F48D1
:10095000FF2903D9FF22228500903BE0618D21858C
:1009600000903DE02046029900F0D4FC16E000F033
:1009700073FD00281CD1606A216800788862606A73
:10098000401C6062608D401E6085208D401E80B2DC
:100990002085618D002901D000280CD0608D0A9936
:1009A00000283A462046E2D100F030FD00281CD055
:1009B000012005B0F0BD00970022802120460A9B4F
:1009C00000F0BCFC0028F3D1608DFF2805D9FF2280
:1009D0002285009601231B06C4E7608D20850096C2
:1009E000208D0123C2B25B06BCE721682020C861CC
:1009F00021684A68064B1A404A606870AE702E70D3
:100A00000020D6E7FFE70220D3E7000000200080A7
:100A100000E800FE10B586B0044614216846FFF7D2
:100A20005AFC1249206888421DD1114C616901208D
:100A3000800401436161616901400591C02000901B
:100A40001220012101900320029104910390694634
:100A50000848FFF737FDE169012040050143E161E6
:100A6000E1690140059106B010BD0000005400404E
:100A70000010024000040048FFB50546044640351A
:100A8000687881B0164620287ED10298002827D0A9
:100A9000002E25D02878012876D001202870FFF775
:100AA000F7FD0746222068702020A87000206064AF
:100AB0000299616266856063206841680126F603D9
:100AC000B14341600097002208212046049B00F0BA
:100AD00035FC002808D0206841683143416026E099
:100AE00001204002606422E021680820C8614103BF
:100AF000009701222046049B00F020FC0028EAD148
:100B000021E000F043FC0028206813D04168314305
:100B1000416020688169C943490708D4406A616A15
:100B20000870606A401C6062608D401E6085012014
:100B300005B0F0BD406A616A0870606A401C60627E
:100B4000608D401E6085608D049900283A462046DD
:100B5000D7D100F05BFC0028BDD121682020C861FE
:100B60000097012231462046049B00F0E7FB002855
:100B7000B1D1206841683143416020206870002075
:100B8000A8702870D4E7FFE70220D1E70248816807
:100B900002788918816070470400002010B506486B
:100BA0000168102211430160002000F007F800F0F6
:100BB00027F8002010BD00000020024070B5044658
:100BC0000D4D7D202978C000FFF787FB01460B48BB
:100BD0000068FFF782FB00F02FFB002809D1042CEE
:100BE00007D200222146401E00F01EF800206C6053
:100BF00070BD012070BD0000040000201000002026
:100C000008B5084881690122114381618169114059
:100C10000091C26901040A43C261C06908400090A2
:100C200008BD00000010024010B500F005FD10BD29
:100C3000F8B505460068394CC00352D5E069002676
:100C4000C00007D4E16920040143E161E16901408A
:100C50000126009132480168C90510D40168821547
:100C600011430160FFF714FD074604E0FFF710FD94
:100C7000C01B642824D82A480068C005F6D5206A1D
:100C800003273F02384020D06968394081421CD098
:100C9000206A226AB843012109040A432262226AB7
:100CA0008A4322622062C0070FD0FFF7F1FC009058
:100CB00008E0FFF7EDFC0099411A1A48814201D97A
:100CC0000320F8BD206A8007F3D5206A6968B8431D
:100CD00008432062002E04D0E1690120000781430F
:100CE000E1612878C00705D0206BA96880088000E2
:100CF000084320632878800605D5206B102188439F
:100D0000E968084320632888400505D5206B402109
:100D100088432969084320630020F8BD0010024081
:100D20000070004088130000F8B50F46060059D047
:100D30003A4D2868C007C00FB84209D22868400859
:100D40004000384328602868C007C00FB84249D126
:100D50003068334C81070CD5400704D56068072103
:100D60000902084360606068F0218843B168084365
:100D700060603078C00726D0706801280ED02168E6
:100D800002280ED0890700292CDA616889088900B9
:100D900001436160FFF77CFC00900DE0216889034E
:100DA000F1E78901EFE7FFF773FC0099411A1D484D
:100DB000814201D90320F8BD60680C2108407168A8
:100DC00089008842EFD12868C007C00FB8420BD90C
:100DD000286840084000384328602868C007C00FD2
:100DE000B84201D00120F8BD3078400706D56068D0
:100DF000072109028843F1680843606000F018F891
:100E00006168094A0906090F515CC8400749086032
:100E10000020FFF7D3FE0020F8BD000000200240B4
:100E20000010024088130000001700081000002086
:100E300010B514A30FCB88B06C460FC415A30FCB0D
:100E40000FC4184A51680C200B4603401648042B67
:100E500016D0082B14D18B021B0F6C46E45CD26AAF
:100E600004AB1207120F9A5CC90305D5002319467B
:100E7000FFF792F9214601E020460C4900F0C3FB40
:100E800008B010BD02030405060708090A0B0C0D83
:100E90000E0F10100102030405060708090A0B0CC7
:100EA0000D0E0F100010024000127A0000093D00E4
:100EB000FEB5040070D02078DC4DC0074AD06868C9
:100EC0000007800F012807D068680007800F0228FC
:100ED00009D16868C00306D5286880033AD56068E0
:100EE0000028E7D036E06168012914D00120800491
:100EF000002901D0052914D02A68012109048A4358
:100F00002A602968814329606068002816D0FFF7AD
:100F1000BFFB06460EE0286801210904084328604B
:100F2000F2E7296801432960F5E7FFF7B1FB801B71
:100F300064286ED828688003F7D50BE0FFF7A8FB7C
:100F4000064604E0FFF7A4FB801B6428F1D828685C
:100F50008003F7D420780126800700283CDA6868EF
:100F60000007800F07D068680007800F022809D1AA
:100F70006868C00306D42868800716D5E068012891
:100F80000AD112E0E0680028286816D030432860B3
:100F9000FFF77EFB074605E043E1FFF779FBC01B47
:100FA0000228C6D828688007F7D52868F821884322
:100FB0002169C900084328600EE04008400028600D
:100FC000FFF766FB074604E0FFF762FBC01B022841
:100FD000AFD828688007F7D42078000722D5E069C9
:100FE0000028686A0ED030436862FFF751FB07465D
:100FF00004E0FFF74DFBC01B02289AD8686A8007FF
:10100000F7D50FE0400840006862FFF741FB074654
:1010100005E09DE0FFF73CFBC01B022889D8686A09
:101020008007F7D4207804274007002860DA0020E2
:101030000190E869C00008D4E969B8060143E96194
:10104000E969014001200091019079480168C905D2
:1010500011D40168821511430160FFF719FB00905C
:1010600005E0FFF715FB0099401A642870D8704816
:101070000068C005F5D5A06801280AD0002801D075
:10108000052810D0286A400840002862286AB84322
:1010900001E0286A30432862A068002812D0FFF7D8
:1010A000F7FA00900AE0286A38432862F1E7FFF770
:1010B000EFFA0099411A5F48814249D8286A8007AF
:1010C000F5D50DE0FFF7E4FA009006E0FFF7E0FA4F
:1010D0000099411A574881423AD8286A8007F5D4C6
:1010E0000198002804D0E969012000078143E961E3
:1010F0002078C00635D5606901280CD0401D686B8A
:1011000023D038436863686B400840006863FFF78A
:10111000BFFA064622E0686B38436863686B304369
:101120006863FFF7B5FA064604E0FFF7B1FA801BE3
:1011300002285BD8686B8007F7D5686BF821884375
:10114000A169C900084368630BE0B8436863F4E72A
:101150004CE0FFF79DFA801B022847D8686B800798
:10116000F7D4206A00285ED069680907890F022930
:1011700042D0012636060228286805D0B0432860F0
:10118000FFF786FA044633E0B0432860FFF780FAA1
:10119000074604E0FFF77CFAC01B022826D828681F
:1011A0008001F7D4E86AE16A000900010843E862B7
:1011B000616AA06A084369683D22120491430843AA
:1011C0006860286830432860FFF762FA044604E04C
:1011D000FFF75EFA001B022808D828688001F7D5BF
:1011E00021E0FFF755FA001B022801D90320FEBDBC
:1011F00028688001F5D416E00128F8D06868E96A0B
:1012000001221204636A02409A420AD10907E26A83
:10121000090F914205D10F2189040840A16A884233
:1012200001D00120FEBD0020FEBD000000100240E4
:101230000070004088130000094910B5401E884224
:1012400001D9012010BD074C60610321081F00F087
:10125000F3F90020A06107202061002010BD0000EC
:10126000FFFFFF0000E000E0FEE701688A69D2436B
:10127000920701D400228A6200688169C943C907C4
:1012800003D081690122114381617047F7B504469B
:1012900000680F468169C943C90636D4416889018F
:1012A00004D441680122920311434160002625467F
:1012B000403520688069C043800612D5781CF8D07C
:1012C000FFF7E6F90299401AB84201D8002FF0D191
:1012D000616C2020014361646870AE702E70012043
:1012E000FEBD21681020C86120682027C761204604
:1012F000FFF7BBFF20684168054A11404160606C00
:101300000421084360646F70E7E70020FEBD000021
:1013100000E800FEF0B50668059C7568064F600D94
:10132000384385438805800D110408431843204342
:1013300005437560F0BD0000FF63FF03F8B51D466F
:1013400017460E46044609E0681C07D0FFF7A0F9CF
:101350000699401AA8420BD8002D09D0206881694F
:10136000304688430FD00020B842EDD00020F8BDB1
:10137000616C202001436164403460700020A070E3
:1013800020700120F8BD0120EEE70000F7B500272E
:10139000202605460446403528E02046029A019959
:1013A000FFF774FF002801D00120FEBD206880698E
:1013B000C043800611D420688169C943490702D41B
:1013C000218D002917D1C661206841680E4A11405D
:1013D000416067646E70AF7013E0FFF759F90299CE
:1013E000411A0198814208D8002806D020688069F7
:1013F000C0434007D1D40020FEBD606C3043606420
:101400006E702F70D0E7000000E800FE70B5164641
:101410000D4604460FE0324629462046FFF736FFC8
:10142000002801D0012070BDFFF732F9801BA842CF
:1014300008D8002D06D020688069C0438006EAD411
:10144000002070BD616C20200143616440346070F5
:101450000020A0702070E5E770B516460D460446E2
:1014600011E0324629462046FFF710FF002801D040
:10147000012070BD681C06D0FFF70AF9801BA84246
:1014800008D8002D06D020688069C0438007E8D4C2
:10149000002070BD616C20200143616440346070A5
:1014A0000020A0702070E3E7F0B587B014216846F3
:1014B000FEF711FF19484269012149040A434261BC
:1014C00042690A400592426989000A4342614269C1
:1014D0000A400592426949100A4342614069032665
:1014E00008400F4F36020590002231463846FFF77C
:1014F000C8F80920400401250024019069460095A0
:1015000002948002FEF7DEFF029469463846009698
:1015100001950394FEF7D6FF07B0F0BD001002401E
:101520000008004810B51448124901601349416091
:10153000062181600121C160002101614161816159
:10154000C1610162FFF7F4F8002801D072B6FEE72E
:1015500000210948FFF7A2F8002801D072B6FEE783
:1015600000210548FFF7BFF8002801D072B6FEE75A
:1015700010BD000000540040140000200E0900209F
:10158000FEE77047704710B5FFF700FB10BD30B5A0
:1015900095B030216846FEF79EFE00240C940D9411
:1015A0000E94142110A80F94FEF795FE01200390CD
:1015B000102009940225049005200095C0040A908B
:1015C00008950B946846FFF773FC002801D072B6AB
:1015D000FEE707200C900E9401210D950F940CA8A6
:1015E000FFF7A2FB002801D072B6FEE72020109082
:1015F000139410A8FFF71CFB002801D072B6FEE779
:1016000015B030BD7047F8B5040C8BB2264682B2D7
:101610005E430D0C1046370C5843360480190021E8
:10162000794116466E43370C3604801979412646B7
:101630006E438919F8BD00008307FF22DB0E9A4034
:101640008907090E9940002808DB830809489B0098
:101650001B18186890430843186070470007000F74
:101660000838830804489B001B18D8699043084336
:10167000D861704700E400E000ED00E01CB5FFF722
:101680008DFAFFF784FFFFF70FFFFFF74BFF0926E7
:101690007524F606642501277F02684604716423D9
:1016A000052200211348FFF79DF801281FD00022D2
:1016B00039461148FEF7E5FF642301220F490D4822
:1016C000FFF7DAF901213046FEF7CEFF0028E4D01B
:1016D00039460948FEF7CDFF012301AA002105483C
:1016E0000095FFF70FF9C820FEF7DAFED5E70122D3
:1016F000DEE7000014000020000800480000002081
:1017000000000000000000000102030406070809B1
:10171000301700080000002014000000000100083D
:101720004417000814000020AC0600001C0100084B
:1017300000000000010000000400000000000000A4
:0417400000127A0019
:04000005080000BD32
:00000001FF
